:020000040800F2
:10000000380B00202902000821060008150400080A
:100010001D06000865030008570C000800000000DA
:10002000000000000000000000000000ED090008D2
:100030006903000800000000CB090008050B000858
:10004000430200084302000843020008430200087C
:10005000430200084302000843020008430200086C
:10006000430200084302000843020008430200085C
:10007000430200084302000843020008430200084C
:10008000430200084302000843020008430200083C
:10009000430200084302000843020008430200082C
:1000A000430200084302000843020008430200081C
:1000B000430200084302000843020008430200080C
:1000C00043020008430200084302000843020008FC
:1000D00043020008710B00084302000843020008B5
:1000E00043020008430200084302000843020008DC
:1000F00043020008430200084302000843020008CC
:1001000043020008430200084302000843020008BB
:1001100043020008430200084302000843020008AB
:10012000430200084302000843020008430200089B
:10013000430200084302000843020008430200088B
:10014000430200084302000843020008430200087B
:10015000430200084302000843020008430200086B
:10016000430200084302000843020008430200085B
:10017000430200084302000843020008430200084B
:10018000430200084302000800F002F800F03CF8C7
:100190000AA090E8000C82448344AAF10107DA45E2
:1001A00001D100F031F8AFF2090EBAE80F0013F0F8
:1001B000010F18BFFB1A43F001031847C0240000C9
:1001C000E0240000103A24BF78C878C1FAD852075A
:1001D00024BF30C830C144BF04680C6070470000C1
:1001E0000023002400250026103A28BF78C1FBD840
:1001F000520728BF30C148BF0B6070471FB500F0E1
:1002000057FE1FBD10B510BD00F07CF81146FFF77A
:10021000F5FF00F00DFE00F09AF803B4FFF7F2FFCF
:1002200003BC00F046FD000009488047094800472C
:10023000FEE7FEE7FEE7FEE7FEE7FEE7FEE7FEE796
:10024000FEE7FEE704480549054A064B70470000F3
:10025000090B00088901000838050020380B002030
:10026000380700203807002070474FF000020429AB
:10027000C0F0128010F0030C00F01F80CCF1040CD1
:10028000BCF1020F18BF00F8012BA8BF20F8022B09
:10029000A1EB0C0100F011B85FEAC17C24BF00F8AB
:1002A000012B00F8012B48BF00F8012B7047704765
:1002B0007047704770474FF0000200B513469446F0
:1002C0009646203922BFA0E80C50A0E80C50B1F1AE
:1002D0002001BFF4F7AF090728BFA0E80C5048BFC2
:1002E0000CC05DF804EB890028BF40F8042B08BF60
:1002F000704748BF20F8022B11F0804F18BF00F85C
:10030000012B7047754600F029F8AE460500694696
:10031000534620F00700854618B020B5FFF792FF3E
:10032000BDE820404FF000064FF000074FF00008F6
:100330004FF0000B21F00701AC46ACE8C009ACE877
:10034000C009ACE8C009ACE8C0098D467047044656
:10035000AFF300802046FFF760FF000000487047C1
:10036000D404002000BFFEE77047F0B50A46002124
:100370000023002400BF3DE0012505FA01F31568C4
:1003800005EA03049C4234D105684F000326BE40B1
:10039000B543056015794E00B540066835430560E4
:1003A0001579012D02D01579022D16D185684F00DF
:1003B0000326BE40B543856055794E00B54086683A
:1003C00035438560456801268E40B54345604568E4
:1003D00096798E40B6B235434560C5684F00032616
:1003E000BE40B543C560D5794E00B540C6683543BB
:1003F000C560491C1029BFD3F0BD02460020136917
:100400000B400BB1012000E0002070474183704792
:100410000183704700BFFEE71CB50121022000F0F8
:10042000D5FA4FF44060009001208DF804000020C0
:100430008DF8060003208DF8050001208DF80700D7
:1004400069460548FFF791FF012004490860044907
:10045000C1F8AC021CBD000000040240A88240426A
:100460000080404270B504461548006820F4400002
:10047000134908600846006840F4800008600020C6
:1004800010490860002517E0E0090E49091D0860C1
:100490006006040E022000F049FC01200A49C1F860
:1004A000A802022000F042FC002006490860022059
:1004B00000F03CFC681CC5B2082DE5DB70BD0000F7
:1004C00000040240A88240420080404210B50F481C
:1004D000006820F440000D4908600846006840F4B8
:1004E0008000086001200A4908600A49C1F8A80292
:1004F000042000F01BFC002005490860042000F0E7
:1005000015FC00200349C1F8A80210BD00040240F8
:10051000AC8240420080404210B50F48006820F491
:1005200040000D4908600846006840F480000860FB
:1005300000200A4908600A49C1F8AC02042000F012
:10054000F5FB0120054908600549C1F8AC0204200B
:1005500000F0ECFB10BD000000040240A882404205
:100560000080404210B500241348006820F4400089
:100570001149086008460068086001200F490860BA
:1005800000F0D4FB01200E49C1F8A80200F0CEFB18
:1005900007E0601CC4B2FA2C03DDFFF7BDFF0120A9
:1005A00010BD0648803800680028F2D10349091FB1
:1005B000086000BFF4E7000000040240AC82404243
:1005C000008040421CB50121032000F0FFF94FF4E8
:1005D0000040009001208DF8040000208DF80600F6
:1005E00003208DF8050001208DF8070069460948B1
:1005F000FFF7BBFE1020009069460748FFF7B5FEE5
:100600004FF460410348FFF701FF10210248FFF754
:10061000FDFE1CBD000002400004024000BFFEE7DA
:100620007047000010B54FF480610348FFF71DFECE
:1006300000F0E4F810BD00000C00002010B500210F
:100640008D2000F0B6F90021142000F0B2F900214D
:10065000AF2000F0AEF910BDF0B5144600267F289B
:1006600001DC3F2900DDF0BD0B46CF1701EB5777CA
:10067000C7F3C702CF1701EB5777FF10A1EBC707EE
:10068000FDB20123AB40DEB24CB10A4B03EBC00319
:100690009B5C3343074F07EBC007BB5408E0054B97
:1006A00003EBC0039B5CB343024F07EBC007BB5493
:1006B00000BFD8E70C0000201CB50121062000F087
:1006C00085F94FF44060009001208DF8040002206D
:1006D0008DF8050000208DF8060069464548FFF7B3
:1006E00044FE2020009069464348FFF73EFEFFF796
:1006F00093FE20214048FFF789FEC82000F0FAFA57
:1007000020213D48FFF784FE4FF4FA7000F0F2FA22
:100710000021AE2000F04DF90021084600F049F913
:100720000021102000F045F90021402000F041F99F
:100730000021B02000F03DF90021812000F039F9BE
:100740000021FF2000F035F90021A12000F031F94F
:100750000021A62000F02DF90021A82000F029F9A1
:1007600000213F2000F025F90021C82000F021F9E8
:100770000021D32000F01DF90021084600F019F9EE
:100780000021D52000F015F90021802000F011F99A
:100790000021D82000F00DF90021052000F009F912
:1007A0000021D92000F005F90021F12000F001F925
:1007B0000021DA2000F0FDF80021122000F0F9F805
:1007C0000021DB2000F0F5F80021302000F0F1F8E6
:1007D00000218D2000F0EDF80021142000F0E9F850
:1007E0000021AF2000F0E5F8FFF728FFFFF71AFF20
:1007F0001CBD0000000402400008024070B5002447
:100800001BE004F1B000002100F0D3F800210846FD
:1008100000F0CFF80021102000F0CBF8002508E010
:10082000074901EBC501085D012100F0C2F8681C11
:10083000C5B2802DF4DB601CC4B2082CE1DB70BDB6
:100840000C0000202DE9F84F80460F4616461C4646
:10085000BA462046E31704EB5373DB1021464FEAF8
:10086000E47C04EB5C7C4FEAEC0CA4EBCC0CBCF11C
:10087000000F02D04FF0010C01E04FF0000C634478
:10088000224604EBD27C4FEA6C0C03FB0CF303F022
:10089000FF0BA6F12000C6B200254EE00C2C07D1BC
:1008A00006EB4600274901EB8000405D009013E015
:1008B000102C05D1244800EB0610405D00900BE0A1
:1008C000182C07D106EBC600204901EB8000405DE3
:1008D000009001E0BDE8F88F4FF0000927E0009894
:1008E00000F0800028B1394640460A9AFFF7B4FE6E
:1008F00009E00A9808B9012000E0002002463946C4
:100900004046FFF7A9FE00984006000E0090781CB4
:10091000C7B2A7EB0A00A04205D1574608F1010073
:1009200000F0FF0806E009F1010000F0FF09B9F14D
:10093000080FD4DB00BF681CC5B25D45AEDB00BF4D
:10094000C8E70000BA0E00082E1300081E190008A0
:10095000F8B506460F4615461C4621E004EBD47157
:100960004910C1F18001B14202DA00263819C7B23C
:10097000C4F14000B84204DA002006460746FFF7FB
:1009800051FE012000902A78234639463046FFF771
:1009900059FF204604EBD07106EB6101CEB26D1C0D
:1009A00028787E2802DC28782028D7DAFFF726FF6F
:1009B000F8BD70B504460D461DB1E0B200F063F914
:1009C00002E0E0B200F049F970BD704729B1064A73
:1009D00012680243044B1A6004E0034A126882431F
:1009E000014B1A6070470000303802407047000029
:1009F0000CB50020019000903448006840F480302D
:100A00003249086000BF3148006800F400300090AF
:100A10000198401C0190009818B90198B0F5A04FBA
:100A2000F1D12A48006800F4003010B10120009094
:100A300001E0002000900098012846D12348403072
:100A4000006840F08050214940310860204800682B
:100A500040F440401E4908601C48083000681B49AB
:100A6000083108600846006840F400400860084605
:100A7000006840F4A05008601648091F0860081F6D
:100A8000006840F08070091F086000BF0F480068D0
:100A900000F000700028F9D040F205700E4908609F
:100AA0000A480830006820F003000849083108604F
:100AB0000846006840F00200086000BF03480830A4
:100AC000006800F00C000828F8D10CBD0038024086
:100AD0000070004008544007003C0240042808D140
:100AE0004FF0E021096941F004014FF0E02211616B
:100AF00007E04FF0E021096921F004014FF0E02206
:100B0000116170477047000010B51548006840F447
:100B10007000134908601348006840F00100114953
:100B2000086000200F49083108600E4800680E492F
:100B300008400C4908600D48091D0860081F00683E
:100B400020F48020091F0860002006490C3108604D
:100B5000FFF74EFF4FF0006001498039086010BD7B
:100B600088ED00E000380240FFFFF6FE1030002460
:100B700010B540F225511D4800F03EF810B31B4857
:100B800000F064F8C4B21A48008800F40040C8B904
:100B90001748008800F4804060B10A2C03D0002080
:100BA0001349088020E01248008840F400401049B2
:100BB000088019E00D2C06D10D48008840F48040D3
:100BC0000B49088010E00A480088C0F30D0009496D
:100BD0000C5407480088401C0549088008460088D6
:100BE000C72801DD0020088010BD00000010014072
:100BF000080000200C04002070B5024600240023E9
:100C00000025002040F66A16B14200D100BFC1F3B2
:100C1000421501F01F03012606FA03F3012D02D14C
:100C20009689334006E0022D02D1168A334001E056
:100C3000968A33400C12012606FA04F416883440D2
:100C400013B10CB1012000E0002070BD014688887E
:100C5000C0F30800704700BFFEE710B50446FFF779
:100C600035FC7820FFF7FEFBFFF77CFC0020FFF748
:100C7000F9FBFFF777FC2046FFF7F4FBFFF772FC68
:100C8000FFF74AFC10BD10B50446FFF71FFC7820A3
:100C9000FFF7E8FBFFF766FC4020FFF7E3FBFFF7F9
:100CA00061FC2046FFF7DEFBFFF75CFCFFF734FC3E
:100CB00010BD014600BF704710B504466FF0040038
:100CC000FFF70CFFE11704EB5171C1F3C701074AAD
:100CD00011701046007800EB4001C1EBC0104FF6D8
:100CE000FF7101EAC0000249088010BD0000002029
:100CF0000200002070B504464FF4077094FBF0F03A
:100D0000C6B24FF4077094FBF0F100FB114085B2BE
:100D100005E04FF4077000F02FF8701EC6B2002EE9
:100D2000F7D115B1284600F027F870BD0146114AE9
:100D300012784A434FF0E0235A6100229A611A4622
:100D4000126942F001021A6100BF4FF0E0221069FF
:100D500000F001021AB100F48032002AF5D04FF001
:100D6000E022126922F001024FF0E0231A61002212
:100D70009A617047000000200146114A12884A43D8
:100D80004FF0E0235A6100229A611A46126942F03C
:100D900001021A6100BF4FF0E022106900F0010269
:100DA0001AB100F48032002AF5D04FF0E022126927
:100DB00022F001024FF0E0231A6100229A6170478D
:100DC0000200002010B5002408210448FFF715FB9D
:100DD00004460CB9012010BD0020FCE700040240CD
:100DE0001CB501210220FFF7F1FD08200090002032
:100DF0008DF8040003208DF8050001208DF8070010
:100E000069460248FFF7B1FA1CBD00000004024029
:100E100010B50024FFF7D6FF0446012C06D10A20A6
:100E2000FFF768FF012C01D1012010BD0020FCE775
:100E30000024A820FFF740FFFFF7C4FBFFF7D0FF17
:100E4000FFF73AFCFFF7EEFB10230EA20021084645
:100E5000FFF77EFD14E0FFF7DBFF044654B1012CE1
:100E600006D110230AA219460020FFF771FD00E009
:100E700000BF00BF102309A219460020FFF768FD3C
:100E8000E9E700002020204B4559205445535400E9
:100E90004B45593120444F574E0000002020202060
:100EA0002020202020202020202020202020200062
:100EB0004FF04070E1EE100A7047000000000000A3
:100EC000000000000000000000003F4000000000A3
:100ED0000000000030004000300040000000090029
:100EE0000BC03D000BC03D00090018C024407FE04E
:100EF000224031800000180024C01B000D803240C9
:100F0000018003801C4027401C80074000401000E7
:100F10006000000000000000000000000000000071
:100F20001F80204040200000402020401F80000003
:100F30000000090006001F800600090000000400F0
:100F400004003F8004000400000000100060000066
:100F5000000000000000040004000400040004007D
:100F60000000000000400000000000000000002021
:100F700001C006003800400000001F8020402040D3
:100F800020401F800000000010403FC000400000D3
:100F9000000018C02140224024401840000010806A
:100FA0002040244024401B80000002000D0011005E
:100FB0003FC0014000003C80244024402440238066
:100FC00000001F8024402440344003800000300093
:100FD000200027C03800200000001B80244024404F
:100FE00024401B8000001C0022C0224022401F80A1
:100FF00000000000000008400000000000000000A9
:1010000000000460000000000000000004000A006E
:101010001100208040400900090009000900090072
:10102000000000004040208011000A000400180069
:10103000200023402400180000001F80204027408B
:1010400029401F400000004007C039000F0001C0C8
:10105000004020403FC0244024401B8000001F80EF
:101060002040204020403080000020403FC02040F1
:1010700020401F80000020403FC024402E4030C050
:10108000000020403FC024402E00300000000F0030
:101090001080204022403380020020403FC00400E6
:1010A00004003FC02040204020403FC0204020405E
:1010B00000000060202020203FC0200020002040B1
:1010C0003FC024400B0030C0204020403FC02040A3
:1010D0000040004000C03FC03C0003C03C003FC097
:1010E000000020403FC00C4023003FC020001F8074
:1010F0002040204020401F80000020403FC024406E
:101100002400180000001F802140214020E01FA083
:10111000000020403FC02440260019C0004018C0F5
:1011200024402440224031800000300020403FC055
:1011300020403000000020003F80004000403F8001
:10114000200020003E0001C00700380020003800C9
:1011500007C03C0007C038000000204039C006002E
:1011600039C0204000002000384007C0384020002F
:101170000000304021C02640384020C00000000060
:1011800000007FE0402040200000000070000C00C4
:101190000380004000000000402040207FE000006D
:1011A00000000000200040002000000000000010AF
:1011B000001000100010001000100000000040009F
:1011C000000000000000000002800540054003C050
:1011D000004020003FC004400440038000000000A5
:1011E00003800440044006400000000003800440E7
:1011F00024403FC0004000000380054005400340FC
:101200000000000004401FC02440244020000000D3
:1012100002E0055005500650042020403FC0044025
:10122000040003C000400000044027C0004000004C
:10123000000000100010041027E000000000204013
:101240003FC00140070004C00440204020403FC090
:1012500000400040000007C0040007C0040003C0B5
:101260000000044007C00440040003C00040000028
:1012700003800440044003800000041007F0045081
:10128000044003800000000003800440045007F085
:101290000010044007C002400400040000000000E9
:1012A00006400540054004C00000000004001F8007
:1012B000044000400000040007800040044007C0D4
:1012C00000400400070004C001800600040006007E
:1012D00001C0070001C006000000044006C0010074
:1012E00006C0044000000410071004E0018006005E
:1012F00004000000044005C0064004400000000057
:10130000000004007BE0402000000000000000001E
:10131000FFF000000000000040207BE0040000001F
:10132000000040008000400020002000400000003D
:1013300000000000000000000000000000000000AD
:10134000000000001FCC000C0000000000000000A6
:10135000080030006000080030006000000002203B
:1013600003FC1E20022003FC1E20022000000000BF
:101370000E1811043FFF10840C78000000000F00CD
:1013800010840F3800C007781884007800000078B7
:101390000F8410C411240E9800E400840008080093
:1013A0006800700000000000000000000000000065
:1013B0000000000007E018182004400200000000B0
:1013C00040022004181807E000000000000002405E
:1013D000024001800FF001800240024000000080C6
:1013E000008000800FF80080008000800000000175
:1013F000000D000E000000000000000000000000D2
:10140000008000800080008000800080008000005C
:10141000000C000C000000000000000000000000B4
:10142000000600180060018006001800200000007F
:1014300007F0080810041004080807F00000000076
:10144000080408041FFC0004000400000000000061
:101450000E0C10141024104411840E0C0000000017
:101460000C1810041104110412880C700000000004
:1014700000E00320042408241FFC002400000000D6
:101480001F981084110411041088107000000000CF
:1014900007F008881104110418880070000000008B
:1014A0001C00100010FC13001C00100000000000C5
:1014B0000E3811441084108411440E3800000000CE
:1014C0000700088C10441044088807F00000000052
:1014D00000000000030C030C0000000000000000EE
:1014E00000000001010600000000000000000000F4
:1014F00000800140022004100808100400000220AF
:10150000022002200220022002200220000000000F
:1015100010040808041002200140008000000000B0
:101520000E001200100C106C10800F00000003E081
:101530000C1813E4142417C4082807D00000000472
:10154000003C03C41C40074000E4001C00041004DD
:101550001FFC1104110411040E880070000003E048
:101560000C1810041004100410081C1000001004C3
:101570001FFC100410041004080807F000001004F9
:101580001FFC1104110417C41004081800001004F3
:101590001FFC1104110017C010000800000003E038
:1015A0000C181004100410441C78004000001004B3
:1015B0001FFC10840080008010841FFC10040000B9
:1015C000100410041FFC10041004000000000003AD
:1015D0000001100110011FFE100010000000100497
:1015E0001FFC110403801464181C10040000100474
:1015F0001FFC1004000400040004000C0000100490
:101600001FFC1F0000FC1F001FFC10040000100442
:101610001FFC0C04030000E010181FFC100007F072
:101620000808100410041004080807F00000100453
:101630001FFC10841080108010800F00000007F045
:10164000081810241024101C080A07F200001004C7
:101650001FFC1104110011C011300E0C0004000019
:101660000E1C11041084108410441C380000180053
:10167000100010041FFC10041000180000001000DF
:101680001FF810040004000410041FF810001000DC
:101690001E0011E0001C007013801C0010001FC011
:1016A000103C00E01F0000E0103C1FC000001004D0
:1016B000180C163401C001C01634180C10041000A8
:1016C0001C00130400FC13041C001000000008049C
:1016D000101C1064108413041C0410180000000077
:1016E000000000007FFE40024002400200000000B7
:1016F00030000C0003800060001C000300000000AC
:101700004002400240027FFE000000000000000096
:1017100000002000400040004000200000000001C8
:1017200000010001000100010001000100010000B2
:101730004000400020000000000000000000000009
:101740000098012401440144014400FC00041000FD
:101750001FFC0088010401040088007000000000E4
:1017600000700088010401040104008800000000EA
:10177000007000880104010411081FFC000400002F
:1017800000F8014401440144014400C80000000085
:10179000010401040FFC11041104110018000000E1
:1017A00000D601290129012901C901060000100400
:1017B0001FFC008401000100010400FC0004000083
:1017C0000104190419FC00040004000000000000DA
:1017D000000300010101190119FE000000001004BE
:1017E0001FFC0024004001B4010C010400000000B3
:1017F000100410041FFC0004000400000000010499
:1018000001FC0104010001FC0104010000FC0104D1
:1018100001FC008401000100010400FC0004000040
:1018200000F8010401040104010400F800000101B2
:1018300001FF008501040104008800700000000021
:101840000070008801040104010501FF000101048A
:10185000010401FC0084010401000180000000007B
:1018600000CC01240124012401240198000000007F
:101870000100010007F8010401040000000001005C
:1018800001F8000400040004010801FC0004010048
:1018900001800170000C001001600180010001F066
:1018A000010C003001C00030010C01F0010000000B
:1018B0000104018C00740170018C0104000001011D
:1018C00001810171000E001801600180010000001B
:1018D0000184010C013401440184010C000000006A
:1018E00000000000000001003EFC40024002000039
:1018F000000000000000FFFF0000000000000000EA
:10190000400240023EFC0100000000000000000018
:1019100060008000800040004000200020000000A7
:1019200000000000000000000000000000000000B7
:1019300000000000000000000000000000000000A7
:101940000000000000000000000000000000000097
:10195000000F80380FFE380F8038000000000000B4
:101960000000000000000000000000000100000670
:1019700000000C00003800003100000600000C00E0
:10198000003800003000000000000000000061800E
:101990000067F807F98000618000618000618000C5
:1019A00061800067F807F980006180000000000096
:1019B0000000000001C0E003E0F006300804180851
:1019C0001FFFFE040E080787F00381E000000000FF
:1019D000000001F000060C00040408060C7001F978
:1019E000C0000E00003BE000EC18070808040C18CB
:1019F0000003E00000000001E00007F003F8180415
:101A00001C0804170807E1D003C0E00023B0003C25
:101A10000800200800001000000000000001000085
:101A20003100003200001C00000000000000000037
:101A300000000000000000000000000000000000A6
:101A400000000000000000000000000000007F0017
:101A500001FFC00780F00C001810000420000200F5
:101A600000000000002000021000040C0018078095
:101A7000F001FFC0007F0000000000000000000037
:101A800000000000000000000000420000660000AE
:101A90006600003C0000180003FFC0001800003C76
:101AA0000000660000660000420000000000080020
:101AB00000080000080000080000080001FFC00046
:101AC00008000008000008000008000008000000EE
:101AD0000000000100003100003200001C00000086
:101AE00000000000000000000000000000000000F6
:101AF00000000000000008000008000008000008C6
:101B000000000800000800000800000800000800AD
:101B10000008000000000000000000000000380085
:101B20000038000038000000000000000000000045
:101B3000000000000000000000000000000000069F
:101B400000001C000070000180000E000038000042
:101B5000C0000700001C0000300000000000000072
:101B600000007F8001FFE003807006001804000879
:101B700004000806001803807001FFE0007F800069
:101B80000000000000000000010008010008010042
:101B90000803FFF807FFF80000080000080000082D
:101BA00000000000000000000001C03802C058041E
:101BB0000098040118040218040418061C1803F8FD
:101BC0001801E0F800000000000000000001C0E083
:101BD00003C0F004000804080804080806180803F5
:101BE000F41801E7F00001E0000000000000000030
:101BF00000000300000D00001100006100008108DA
:101C000003010807FFF80FFFF800010800010800B2
:101C100000000000000000E007FCD00608080610E5
:101C200008061008061008061838060FF00607C048
:101C3000000000000000000000003F8001FFE00302
:101C4000843002081804100804100804100807184B
:101C500010030FF00007C0000000000000000000AB
:101C600003C0000700000600000600F80607F8069B
:101C7000180006E000070000060000000000000059
:101C80000001E1E003F7F006341004180804180816
:101C9000040C08040C0806161803F3F001C1E00058
:101CA000000000000000F80003FC300306380402C6
:101CB000080402080402080404100308F001FFC02D
:101CC000007F000000000000000000000000000095
:101CD000000000000000703800703800703800000C
:101CE00000000000000000000000000000000000F4
:101CF00000000000000000000000301A00301C004E
:101D000000000000000000000000000000000000D3
:101D10000000000000080000140000220000410044
:101D2000008080010040020020040010080008002C
:101D3000000000000000210000210000210000211F
:101D400000002100002100002100002100002100EE
:101D5000002100000000000000000000080008044E
:101D6000001002002001004000808000410000229D
:101D70000000140000080000000000000003C00084
:101D800004C000040000080038080F3808083808AC
:101D900010000C300007E00003C00000000000004D
:101DA00000003F8000FFE0038070020F1006708883
:101DB00004C088048308047F8802C09003012000C7
:101DC000FE400000080000180001F8003E0801C2B3
:101DD0000007020007E20000FE00001FC80001F833
:101DE00000003800000804000807FFF807FFF804A7
:101DF000080804080804080804080806180803F47A
:101E00001801E7F00001E0000000000000003F8042
:101E100001FFE003807002001804000804000804B9
:101E200000080400100600200780C0000000040025
:101E30000807FFF807FFF80400080400080400087A
:101E400004001802001003807001FFE0007F800092
:101E5000000004000807FFF807FFF804080804085A
:101E600008040808040808043E08040008060018CE
:101E700001006000000004000807FFF807FFF804F5
:101E80000808040800040800040800043E000600D6
:101E900000060000018000000000000000003F80FC
:101EA00001FFE00380700600180400080402080423
:101EB00002080203F00783F00002000002000400A1
:101EC0000807FFF807FFF8040808000800000800EA
:101ED00000080000080004080807FFF807FFF804DE
:101EE00000080000000000000400080400080400CE
:101EF0000807FFF807FFF8040008040008040008BA
:101F000000000000000000000000000600000700C4
:101F1000000104000104000104000307FFFE07FFA5
:101F2000FC04000004000004000004000807FFF89F
:101F300007FFF8040C08001800003E0004C78005E5
:101F400003C80600F8040038040018000008040064
:101F50000807FFF807FFF804000800000800000861
:101F600000000800000800000800001800006000E1
:101F7000000004000807FFF807800807FC00007F46
:101F8000C00003F80007C000780007800807FFF8CA
:101F900007FFF804000804000807FFF8070008031B
:101FA000C00000E000003800001E00000700000133
:101FB000C00400F007FFF8040000000000007F806C
:101FC00001FFE00380700600180400080400080602
:101FD000001803003001FFE0007F800000000400D3
:101FE0000807FFF807FFF8040408040400040400CD
:101FF000040400040400060C0003F80001F00000D3
:102000000000000000007F8001FFE00380700600F8
:10201000880400880400C806003C03003E01FFE677
:10202000007F8400000004000807FFF807FFF804A1
:102030000808040800040C00040F00040BC006107C
:10204000F003F03801E00800000800000001E0F8AB
:1020500003F030063010041808041808040C0804B3
:102060000C080206180207F00781E000000001805A
:102070000006000004000004000004000807FFF848
:1020800007FFF80400080400000400000600000137
:10209000800004000007FFE007FFF00400180000C4
:1020A00008000008000008000008000008040010F4
:1020B00007FFE004000004000006000007E000073E
:1020C000FE00041FE00001F80000380001E0043EBB
:1020D0000007C00006000004000004000007E00044
:1020E00007FFC0041FF80007C007F80007FF8004BF
:1020F0003FF80007C004F8000700000400000000DB
:102100000004000806001807C07805F1C8003E006A
:10211000001F800463E80780F80600180400080028
:10212000000004000006000007800007E008047CAF
:1021300008001FF80007F800180804E0080700006E
:10214000060000040000000000010008060038043A
:1021500000F80403E8040F08047C0805F00807C031
:1021600008070018040060000000000000000000E4
:102170000000000000000000003FFFFE20000220E1
:1021800000022000022000022000020000000000E7
:102190000000000008000007000000C00000380038
:1021A0000006000001C000003000000E0000010029
:1021B00000000000000000002000022000022000BB
:1021C000022000022000023FFFFE0000000000008D
:1021D00000000000000000000000000000000008F7
:1021E000000010000030000020000030000010004F
:1021F00000080000000000000000000001000001D5
:1022000000000100000100000100000100000100C9
:1022100000010000010000010000010000010000B9
:10222000000000000000002000002000001000005E
:10223000100000000000000000000000000000008E
:1022400000000000000000F00019F8001B18002238
:1022500008002608002408002410003FF8001FF89A
:1022600000000800001800000004000007FFF80F3D
:10227000FFF00018180010080020080020080030A7
:1022800018001FF0000FC00000000000000007C091
:10229000001FF0001830002008002008002008006F
:1022A0003C08001C1000006000000000000000005E
:1022B000000007C0001FF0003818002008002008A8
:1022C00000200804101007FFF80FFFF000001000B6
:1022D00000000000000000000007C0001FF0001216
:1022E00030002218002208002208003208001E10C8
:1022F000000E200000000000000020000020080068
:10230000200801FFF803FFF8062008042008042035
:102310000807200003000000000000000000000E7D
:10232000000E6E001FF30031B10020B10020B1009B
:102330003191001F13002E1E00200E0030000000FF
:102340000004000807FFF80FFFF800100800200045
:10235000002000002008003FF8001FF800000800DF
:1023600000000000000000000020080020080020FD
:1023700008063FF8063FF8000008000008000008C3
:10238000000000000000000000000000000003004A
:102390000003002001002001002003063FFE063F4D
:1023A000FC00000000000000000000000004000825
:1023B00007FFF80FFFF8000188000300002FC0009E
:1023C00038F8002038002008000008000000000055
:1023D0000000000004000804000804000807FFF8DB
:1023E0000FFFF800000800000800000800000000CF
:1023F0000000002008003FF8003FF800100800200F
:1024000000003FF8003FF8001008002000003FF8EF
:10241000003FF8000008000000002008003FF8001E
:102420003FF8001008001000002000002008003FC6
:10243000F8001FF80000080000000000000007C0BE
:10244000000FF000183000300800200800200800BD
:102450003008001830000FF00007C0000000000036
:1024600000002001003FFF003FFF00101100200985
:10247000002008002008003038001FF0000FC000C6
:1024800000000000000007C0001FF0003818002006
:1024900008002008002009001011001FFF003FFF66
:1024A00000000100000000200800200800200800B3
:1024B0003FF8003FF800080800100800200800203E
:1024C00000003000003000000000000000000000AC
:1024D000000C78001E1800330800230800210800B3
:1024E00021880021980030F00038600000000000D2
:1024F0000000200000200000200000FFF003FFF893
:102500000020080020080020080000300000000023
:102510000000000000002000003FF0007FF80000F5
:1025200018000008000008002010003FF8007FF0AD
:10253000000010000000000000002000003000003B
:102540003C00003F800023F0000078000070002372
:1025500080003C00003000002000002000003C0013
:10256000003FE00023F80000E0002700003E0000EC
:102570003FE00021F80001E0003E000020000000E4
:1025800000002008002008003838003E680027803E
:102590000003C8002CF8003838002018002008007C
:1025A0000000000000002000003003003C01003F5C
:1025B000830023EC000070002380003C000020001A
:1025C00000200000000000000000000000380800AB
:1025D00020380020F80023E8002F88003E0800384B
:1025E000080020180000700000000000000000003B
:1025F0000000000000000000000008000014001FA0
:10260000F7FC30000620000200000000000000007F
:1026100000000000000000000000000000000000BA
:10262000FFFFFF00000000000000000000000000AD
:1026300000000000000000002000023000061FF72C
:10264000FC00140000080000000000000000000072
:1026500000000000000000000018000060000040C2
:1026600000004000002000001000000800000400EE
:10267000000400000C000010000000009C26000870
:10268000000000200C000000C4010008A82600087B
:102690000C0000202C0B0000E001000800000000EE
:0826A000000000000000000032
:040000050800018965
:00000001FF
